:031544000136006D
:1016D800C28712172912175E12176E1215EF12140D
:0B16E800DF121303AF361213B280F6BE
:0300030002174E93
:10174E00C0E0E536700575360780021536D0E032FA
:03000B00021638A2
:10163800C0E0C0F0C083C082C0D075D000C000C078
:1016480001C002C003C004C005C006C0071211468D
:10165800758C3C758A80D007D006D005D004D0039D
:10166800D002D001D000D0D0D082D083D0F0D0E04A
:01167800323F
:0300130002173D94
:10173D00C0E0E53664077004F53680020536D0E06A
:01174D003269
:0D176E00C2AFD288D2A8D28AD2AAD2AF22AE
:10175E00758901758C3C758A80D2A9D28CD2AF2244
:10169C00E4FDFCC3ED9FEC9E5015E4FBFA0BBB0084
:0F16AC00010AEB64714A70F50DBD00010C80E47A
:0116BB00220C
:101729007F381216F37F0C1216F37F061216F37F19
:04173900010216F3A0
:1016F300C2B5C2B7C2B68FA07F057E0012169CD2B8
:0B170300B57F057E0012169CC2B522C7
:10170E00C2B5D2B7C2B68FA07F057E0012169CD28C
:0B171E00B57F057E0012169CC2B522AC
:10167900040E15040404040004040404150E0400F3
:101689000000000000000000586231373631303167
:03169900303700E7
:1014DF00E4F5327FC61216F3E53290169193FF6052
:1014EF000E12170E05327F057E0012169C80E97FC3
:1014FF00801216F37F5B12170E7F4312170E7F6851
:10150F0012170E7F3012170E7F3012170E7F5D12DB
:10151F00170E7F871216F37F5612170E7F6F121753
:10152F000E7F6C12170E7F3A12170E7F8F1216F363
:05153F007F5602170EAB
:1013B2008F327F841216F3E5362430FF12170E7F28
:1013C2008B1216F3E532B408004003021452901354
:1013D200D7F82828730213EF0213F30213F702134C
:1013E200FB0213FF02140302140702140BE4FF8032
:1013F2001A7F0180167F0280127F03800E7F048095
:101402000A7F0580067F0680027F07120016AE2C37
:10141200AF2D7C007D641207DCEF2430FF12170E23
:101422007F2E12170EAE2CAF2D7C007D0A1207DC28
:101432007C007D0A1207DCED2430FF12170EAE2C61
:10144200AF2D7C007D0A1207DCED2430FF12170E4F
:011452002277
:10087500EFB408004003020A5E900885F828287343
:1008850002089D0208D402090B02094202097902F5
:1008950009B00209E6020A1CAE18AF197C007D6496
:1008A500120831EF2430FF12170E7F2E12170EAEED
:1008B50018AF197C007D0A1208317C007D0A1208E8
:1008C50031ED2430FF12170EAE18AF19020A50AEE3
:1008D5001AAF1B7C007D64120831EF2430FF12171C
:1008E5000E7F2E12170EAE1AAF1B7C007D0A120862
:1008F500317C007D0A120831ED2430FF12170EAE4F
:100905001AAF1B020A50AE1CAF1D7C007D64120895
:1009150031EF2430FF12170E7F2E12170EAE1CAFCB
:100925001D7C007D0A1208317C007D0A120831ED1C
:100935002430FF12170EAE1CAF1D020A50AE1EAFBB
:100945001F7C007D64120831EF2430FF12170E7FE3
:100955002E12170EAE1EAF1F7C007D0A1208317CC9
:10096500007D0A120831ED2430FF12170EAE1EAFBE
:100975001F020A50AE20AF217C007D64120831EFC2
:100985002430FF12170E7F2E12170EAE20AF217CDA
:10099500007D0A1208317C007D0A120831ED2430F1
:1009A500FF12170EAE20AF21020A50AE22AF237CF4
:1009B500007D64120831EF2430FF12170E7F2E12CE
:1009C500170EAE22AF237C007D0A1208317C007D14
:1009D5000A120831ED2430FF12170EAE22AF238024
:1009E5006AAE24AF257C007D64120831EF2430FF08
:1009F50012170E7F2E12170EAE24AF257C007D0A2E
:100A05001208317C007D0A120831ED2430FF1217DF
:100A15000EAE24AF258034AE26AF277C007D641250
:100A25000831EF2430FF12170E7F2E12170EAE2657
:100A3500AF277C007D0A1208317C007D0A1208313F
:100A4500ED2430FF12170EAE26AF277C007D0A126B
:0A0A55000831ED2430FF12170E22C5
:100A5F00EFB408004003020C48900A6FF82828737F
:100A6F00020A87020ABE020AF5020B2C020B63026E
:100A7F000B9A020BD0020C06AE08AF097C007D6406
:100A8F00120831EF2430FF12170E7F2E12170EAE01
:100A9F0008AF097C007D0A1208317C007D0A12081C
:100AAF0031ED2430FF12170EAE08AF09020C3AAE2B
:100ABF000AAF0B7C007D64120831EF2430FF121750
:100ACF000E7F2E12170EAE0AAF0B7C007D0A120896
:100ADF00317C007D0A120831ED2430FF12170EAE63
:100AEF000AAF0B020C3AAE0CAF0D7C007D641208FE
:100AFF0031EF2430FF12170E7F2E12170EAE0CAFF0
:100B0F000D7C007D0A1208317C007D0A120831ED40
:100B1F002430FF12170EAE0CAF0D020C3AAE0EAF13
:100B2F000F7C007D64120831EF2430FF12170E7F07
:100B3F002E12170EAE0EAF0F7C007D0A1208317CFD
:100B4F00007D0A120831ED2430FF12170EAE0EAFE2
:100B5F000F020C3AAE10AF117C007D64120831EF1A
:100B6F002430FF12170E7F2E12170EAE10AF117C0E
:100B7F00007D0A1208317C007D0A120831ED243005
:100B8F00FF12170EAE10AF11020C3AAE12AF137C5C
:100B9F00007D64120831EF2430FF12170E7F2E12E2
:100BAF00170EAE12AF137C007D0A1208317C007D48
:100BBF000A120831ED2430FF12170EAE12AF138058
:100BCF006AAE14AF157C007D64120831EF2430FF3C
:100BDF0012170E7F2E12170EAE14AF157C007D0A62
:100BEF001208317C007D0A120831ED2430FF1217F4
:100BFF000EAE14AF158034AE16AF177C007D6412A5
:100C0F000831EF2430FF12170E7F2E12170EAE167B
:100C1F00AF177C007D0A1208317C007D0A12083163
:100C2F00ED2430FF12170EAE16AF177C007D0A129F
:0A0C3F000831ED2430FF12170E22D9
:021248008F34E1
:10124A007F401216F3E534606E146039240260039D
:10125A00021302E4F535C3E535940874809480508E
:10126A0015E53590168193FF12170E7F057E001241
:10127A00169C053580E07FC01216F3E4FF12170EA4
:10128A00AF36020875E4F535C3E5359408748094E1
:10129A00805015E53590167993FF12170E7F057E5B
:1012AA000012169C053580E07FC01216F3E4FF1287
:1012BA00170EAF36020A5FE4F535C3E535940874B4
:1012CA008094805015E53590168993FF12170E7F8A
:1012DA00057E0012169C053580E07FC01216F37F4A
:1012EA002012170E7F2012170E7F2012170E7F2052
:0812FA0012170E7F2012170EDF
:0113020022C8
:0A154700042800000000022C000040
:10001600EFB40800400302047E900026F8282873F7
:1000260002003E0200C20201460201CA02024E025C
:1000360002D20203560203DAE4F52BF52AF529F576
:1000460028753305AF33EF3395E0FED3EF9400EE1A
:10005600648094804063C283C284E4FF12159ED2FA
:10006600837F057E0012169CC2837F057E001216D2
:100076009C3085417590FFD284AB2BAA2AA929A86A
:1000860028C000C001C002C003AC90E4120727E4F8
:10009600FBFA794C7842120680D003D002D001D008
:1000A600001204868F2B8E2A8D298C287F057E00D0
:1000B60012169CC2841533808B02045BE4F52BF583
:1000C6002AF529F528753305AF33EF3395E0FED3CE
:1000D600EF9400EE648094804063C283C2847F0103
:1000E60012159ED2837F057E0012169CC2837F0561
:1000F6007E0012169C3085417590FFD284AB2BAAE8
:100106002AA929A828C000C001C002C003AC90E4F7
:10011600120727E4FBFA794C7842120680D003D006
:1001260002D001D0001204868F2B8E2A8D298C28AE
:100136007F057E0012169CC2841533808B02045BF9
:10014600E4F52BF52AF529F528753305AF33EF339A
:1001560095E0FED3EF9400EE648094804063C28302
:10016600C2847F0212159ED2837F057E0012169CE2
:10017600C2837F057E0012169C3085417590FFD2A2
:1001860084AB2BAA2AA929A828C000C001C002C096
:1001960003AC90E4120727E4FBFA794C7842120686
:1001A60080D003D002D001D0001204868F2B8E2A75
:1001B6008D298C287F057E0012169CC284153380FB
:1001C6008B02045BE4F52BF52AF529F52875330532
:1001D600AF33EF3395E0FED3EF9400EE6480948066
:1001E6004063C283C2847F0312159ED2837F057E3D
:1001F6000012169CC2837F057E0012169C30854134
:100206007590FFD284AB2BAA2AA929A828C000C0C2
:1002160001C002C003AC90E4120727E4FBFA794C54
:100226007842120680D003D002D001D00012048694
:100236008F2B8E2A8D298C287F057E0012169CC254
:10024600841533808B02045BE4F52BF52AF529F53A
:1002560028753305AF33EF3395E0FED3EF9400EE08
:10026600648094804063C283C2847F0412159ED248
:10027600837F057E0012169CC2837F057E001216C0
:100286009C3085417590FFD284AB2BAA2AA929A858
:1002960028C000C001C002C003AC90E4120727E4E6
:1002A600FBFA794C7842120680D003D002D001D0F6
:1002B600001204868F2B8E2A8D298C287F057E00BE
:1002C60012169CC2841533808B02045BE4F52BF571
:1002D6002AF529F528753305AF33EF3395E0FED3BC
:1002E600EF9400EE648094804063C283C2847F05ED
:1002F60012159ED2837F057E0012169CC2837F054F
:100306007E0012169C3085417590FFD284AB2BAAD5
:100316002AA929A828C000C001C002C003AC90E4E5
:10032600120727E4FBFA794C7842120680D003D0F4
:1003360002D001D0001204868F2B8E2A8D298C289C
:100346007F057E0012169CC2841533808B02045BE7
:10035600E4F52BF52AF529F528753305AF33EF3388
:1003660095E0FED3EF9400EE648094804063C283F0
:10037600C2847F0612159ED2837F057E0012169CCC
:10038600C2837F057E0012169C3085417590FFD290
:1003960084AB2BAA2AA929A828C000C001C002C084
:1003A60003AC90E4120727E4FBFA794C7842120674
:1003B60080D003D002D001D0001204868F2B8E2A63
:1003C6008D298C287F057E0012169CC284153380E9
:1003D6008B02045BE4F52BF52AF529F52875330520
:1003E600AF33EF3395E0FED3EF9400EE6480948054
:1003F6004063C283C2847F0712159ED2837F057E27
:100406000012169CC2837F057E0012169C30854121
:100416007590FFD284AB2BAA2AA929A828C000C0B0
:1004260001C002C003AC90E4120727E4FBFA794C42
:100436007842120680D003D002D001D00012048682
:100446008F2B8E2A8D298C287F057E0012169CC242
:10045600841533808BE4FBFA79A07840AF2BAE2A63
:10046600AD29AC28120680E4FBFA79C87842120559
:080476007712075B8E2C8F2D1D
:01047E00225B
:10159E00EFB40800504A9015ABF82828730215C313
:1015AE000215C70215CB0215CF0215D30215DA02AA
:1015BE0015E10215E8C282800EC2828011C28280BD
:1015CE0014C2828017D282C281C28022D282C2818C
:1015DE00D28022D282D281C28022D282D281D28085
:0115EE0022DA
:1015510002180000020801F4021A0000020A01F454
:10156100021C0000020C01F4021E0000020E01F434
:1015710002200000021001F402220000021201F414
:1015810002240000021401F402260000021601F4F4
:100F0100EFB408004003021034900F11F828287341
:100F1100020F29020F4C020F6F020F92020FB5024E
:100F21000FD5020FF5021015E509240AFFE4350873
:100F3100FED3EF94F4EE6480948140030210347484
:100F41000A2509F509E43508F50822E50B240AFF0D
:100F5100E4350AFED3EF94F4EE64809481400302F9
:100F61001034740A250BF50BE4350AF50A22E50D58
:100F7100240AFFE4350CFED3EF94F4EE64809481EF
:100F81004003021034740A250DF50DE4350CF50CFF
:100F910022E50F240AFFE4350EFED3EF94F4EE644C
:100FA1008094814003021034740A250FF50FE43553
:100FB1000EF50E22E511240AFFE43510FED3EF945D
:100FC100F4EE64809481506B740A2511F511E435B7
:100FD10010F51022E513240AFFE43512FED3EF9435
:100FE100F4EE64809481504B740A2513F513E435B3
:100FF10012F51222E515240AFFE43514FED3EF940D
:10100100F4EE64809481502B740A2515F515E435AE
:1010110014F51422E517240AFFE43516FED3EF94E4
:10102100F4EE64809481500B740A2517F517E435AA
:0410310016F5162278
:100C4900EFB408004003020DA4900C59F82828734A
:100C5900020C71020C99020CC1020CE9020D11027D
:100C69000D36020D5B020D80E519240AFFE43518E3
:100C7900FED3E5099FEE6480F8E508648098500387
:100C8900020DA474F62509F50974FF3508F5082243
:100C9900E51B240AFFE4351AFED3E50B9FEE6480B9
:100CA900F8E50A6480985003020DA474F6250BF543
:100CB9000B74FF350AF50A22E51D240AFFE4351CE9
:100CC900FED3E50D9FEE6480F8E50C64809850032F
:100CD900020DA474F6250DF50D74FF350CF50C22E3
:100CE900E51F240AFFE4351EFED3E50F9FEE64805D
:100CF900F8E50E6480985003020DA474F6250FF5EB
:100D09000F74FF350EF50E22E521240AFFE4352084
:100D1900FED3E5119FEE6480F8E510648098407B6E
:100D290074F62511F51174FF3510F51022E5232409
:100D39000AFFE43522FED3E5139FEE6480F8E5123D
:100D4900648098405674F62513F51374FF3512F52F
:100D59001222E525240AFFE43524FED3E5159FEE8A
:100D69006480F8E514648098403174F62515F5150A
:100D790074FF3514F51422E527240AFFE43526FE0D
:100D8900D3E5179FEE6480F8E516648098400C74EB
:0C0D9900F62517F51774FF3516F5162225
:100DA500EFB408004003020F00900DB5F828287332
:100DB500020DCD020DF5020E1D020E45020E6D024D
:100DC5000E92020EB7020EDCE50924F6FFE50834A3
:100DD500FFFEC3E5199FEE6480F8E518648098402E
:100DE50003020F00740A2519F519E43518F51822C0
:100DF500E50B24F6FFE50A34FFFEC3E51B9FEE6411
:100E050080F8E51A6480984003020F00740A251BD8
:100E1500F51BE4351AF51A22E50D24F6FFE50C3429
:100E2500FFFEC3E51D9FEE6480F8E51C64809840D5
:100E350003020F00740A251DF51DE4351CF51C225F
:100E4500E50F24F6FFE50E34FFFEC3E51F9FEE64B4
:100E550080F8E51E6480984003020F00740A251F80
:100E6500F51FE4351EF51E22E51124F6FFE51034C5
:100E7500FFFEC3E5219FEE6480F8E520648098506D
:100E85007A740A2521F521E43520F52022E513247D
:100E9500F6FFE51234FFFEC3E5239FEE6480F8E517
:100EA500226480985055740A2523F523E43522F5EC
:100EB5002222E51524F6FFE51434FFFEC3E5259F40
:100EC500EE6480F8E5246480985030740A2525F591
:100ED50025E43524F52422E51724F6FFE51634FF2D
:100EE500FEC3E5279FEE6480F8E526648098500BE5
:0C0EF500740A2527F527E43526F526228F
:10103500EFB408004003021145901045F8282873C5
:1010450002105D02107C02109B0210BA0210D6023B
:1010550010F202110E02112AE51924F6E51834FFE3
:10106500C364809480500302114574F62519F5195F
:1010750074FF3518F51822E51B24F6E51A34FFC36D
:1010850064809480500302114574F6251BF51B748A
:10109500FF351AF51A22E51D24F6E51C34FFC36455
:1010A500809480500302114574F6251DF51D74FFCB
:1010B500351CF51C22E51F24F6E51E34FFC36480AC
:1010C5009480407C74F6251FF51F74FF351EF51EB0
:1010D50022E52124F6E52034FFC364809480406036
:1010E50074F62521F52174FF3520F52022E523240A
:1010F500F6E52234FFC364809480404474F62523CA
:10110500F52374FF3522F52222E52524F6E524345E
:10111500FFC364809480402874F62525F52574FF67
:101125003524F52422E52724F6E52634FFC364801B
:101135009480400C74F62527F52774FF3526F5268F
:011145002287
:0C159100012E01012F000130000131008B
:10130300E4F533852E3220B007753303F52E800EB6
:1013130020B108753304E4F52E8003752E01E53200
:101323006401706FE52E706BF530E52F7021E533A6
:101333006403700A7F01121248753101800EE53390
:10134300640470087FFF1212487531FF052F22E5F0
:101353003104602024FE7056E53364037007AF3612
:10136300120F01800BE53364047043AF36120C494E
:101373007F01801CE53364037009AF36120DA57F2E
:10138300FF800DE53364047025AF361210357FFFFF
:10139300021248E53264017015E52E6401700F05F1
:0E13A30030E53064147007FF121248E4F52F95
:0113B1002219
:10114600E536B408004003021247901157F82828E4
:101156007302116F0211880211A40211C00211DA82
:101166000211F402120E021228D3E52D9509E52C80
:101176009508505CC3E52D9519E52C95185053023A
:10118600123ED3E52D950BE52C950A500BC3E52DA4
:10119600951BE52C951A500302123E021243D3E525
:1011A6002D950DE52C950C500BC3E52D951DE52CC5
:1011B600951C500302123E021243D3E52D950FE50E
:1011C6002C950E500BC3E52D951FE52C951E500250
:1011D60080668069D3E52D9511E52C9510500BC3DB
:1011E600E52D9521E52C95205002804C804FD3E5C6
:1011F6002D9513E52C9512500BC3E52D9523E52C63
:101206009522500280328035D3E52D9515E52C9533
:1012160014500BC3E52D9525E52C95245002801816
:10122600801BD3E52D9517E52C9516500BC3E52DA0
:101236009527E52C95265005D287C28622C287D2ED
:021246008622FE
:1016BC00417574686F723A204A484C004E756D3A09
:0C16CC00205862313736313031303700A1
:1015EF00E4F532F5337F801216F3E5329016BC9393
:1015FF00FF600E12170E05327F057E0012169C80BB
:10160F00E97FC01216F3E5339016C893FF600E12F0
:10161F00170E05337F057E0012169C80E97FD07E62
:09162F000712169C7F010216F35C
:10047F000207C7E86480F8E933E83360110460F0DD
:10048F00ED33EC337009E8FCE9FDEAFEEBFF2204E3
:10049F0060DED3EB9FEA9EE99DE8C2E78CF0C2F7DE
:1004AF0095F0400CE8CCF8E9CDF9EACEFAEBCFFBAA
:1004BF0012079285D0F05804700320D5B3E804706A
:1004CF00075002B2D50207D192D5EC0460F7E4CC05
:1004DF00C0E0C398F8603B94186008400DD0E0FB73
:1004EF000207A9E4FBFAC9FC8028E830E406E4C956
:1004FF00FBE4CAFCE830E305E4C9CACBFCE85407C7
:10050F006010F8C3E913F9EA13FAEB13FBEC13FCD1
:10051F00D8F130F52FC3E49CFCEF9BFFEE9AFEED74
:10052F0099FDD0E0FBEF4E4D4C701222DB0302071A
:10053F00CEEC2CFCEF33FFEE33FEED33FDED30E769
:10054F00EB0207A9EF2BFFEE3AFEED39FDD0E0FBF2
:10055F0050130BBB00030207D1ED13FDEE13FEEF9B
:08056F0013FFEC13FC0207A9C5
:10057700EC4D6011E8497017ED33EC3304600DE47E
:10058700FCFFFEFD22E933E8330470F80207C712C7
:10059700079258046009E4CC2481500628500902C8
:1005A70007D12840030207CEC0E0EB4A7044B98068
:1005B70006D0E0FB0207BDEF4E701CBD8008EBFFC5
:1005C700EAFEE9FD80EBE98DF0A4FEE5F0020660A6
:1005D700E9CDF9EAFEEBFFEF89F0A4FCE5F0CE895F
:1005E700F0A42EFFE435F0CD89F0A42DFEE435F01C
:1005F7008067EF4E7005BD80D780C3EF8BF0A4AC4A
:10060700F0EE8BF0A42CFCE435F0F8EF8AF0A42C84
:10061700E5F038FCE433CB8DF0A42CFCE5F03BF897
:10062700EE8AF0A42CFCE5F038F8E433CF89F0A487
:100637002CFCE5F038CF3400CE89F0A42FFFE5F08D
:100647003EFEE433C98DF0A42EFEE5F039CD8AF0E5
:10065700A42FFFE5F03EFEE43DFD33D0E0FB50075D
:100667000BBB000F0207D1EC2CFCEF33FFEE33FE80
:06067700ED33FD0207A9AE
:10067D000207D1EC5D046005E8590470030207C759
:10068D00120792580460F6EC4860F2EC7004FDFE1F
:10069D00FF22C860DB2481C85009C3986002500650
:1006AD000207CE9850CAF582E9294B4A7005AB82F4
:1006BD000207BD75F0007C1A7880C3EF9BEE9AEDB2
:1006CD0099400DC3EF9BFFEE9AFEED99FDE842F0C8
:1006DD00DC23ACF0D0E0FFD0E0FED0E0FDAB82201B
:1006ED00E7101BEB60BAEC2CFCEF33FFEE33FEEDA5
:1006FD0033FD0207A9E803F830E705C0F075F000F7
:10070D00EF2FFFEE33FEED33FD40B830E7C280AA88
:10071D0075F020800E75F010800575F0087D007E57
:10072D00007F003392D530D503120867EC334010AB
:10073D00EF33FFEE33FEED33FDEC33FCD5F0ED2260
:0E074D00E5F0247EA2D513CC92E7CDCEFF229C
:10075B00EDD2E7CD33EC3392D524814006E4FFFE96
:10076B00FDFC22FCE4CFCECDCC24E0501174FF80F5
:10077B00EDC3CC13CCCD13CDCE13CECF13CF047092
:07078B00F030D5DE02086723
:10079200E9D2E7C933E833F892D5EDD2E7CD33ECAD
:0707A20033FC5002B2D52226
:1007A900EC30E7100FBF000C0EBE00080DBD0004B1
:1007B9000BEB6014A2D5EB13FCED92E7FD2274FF5D
:1007C900FCFDFEFF22E480F8A2D574FF13FC7D80B6
:0307D900E480EFCA
:0300000002145394
:0C145300787FE4F6D8FD75813602149A0B
:1007DC00BC000BBE0029EF8DF084FFADF022E4CC01
:1007EC00F875F008EF2FFFEE33FEEC33FCEE9DECCA
:1007FC00984005FCEE9DFE0FD5F0E9E4CEFD22ED10
:10080C00F8F5F0EE8420D21CFEADF075F008EF2F59
:10081C00FFED33FD4007985006D5F0F222C398FD4A
:05082C000FD5F0EA22E7
:10083100C2D5EC30E709B2D5E4C39DFDE49CFCEEE2
:1008410030E715B2D5E4C39FFFE49EFE1207DCC377
:10085100E49DFDE49CFC80031207DC30D507C3E472
:060861009FFFE49EFE2251
:0E086700C3E49FFFE49EFEE49DFDE49CFC22A2
:10145F000216D8E493A3F8E493A34003F68001F2B5
:10146F0008DFF48029E493A3F85407240CC8C3338E
:10147F00C4540F4420C8834004F456800146F6DF5D
:10148F00E4800B0102040810204080901544E47E94
:10149F00019360BCA3FF543F30E509541FFEE49352
:1014AF00A360010ECF54C025E060A840B8E493A319
:1014BF00FAE493A3F8E493A3C8C582C8CAC583CA44
:1014CF00F0A3C8C582C8CAC583CADFE9DEE780BEFC
:01159D00004D
:00000001FF
